{
  "_format": "hh-sol-artifact-1",
  "contractName": "Fbomb",
  "sourceName": "contracts/Fbomb.sol",
  "abi": [
    {
      "inputs": [],
      "stateMutability": "nonpayable",
      "type": "constructor"
    },
    {
      "anonymous": false,
      "inputs": [
        {
          "indexed": true,
          "internalType": "address",
          "name": "owner",
          "type": "address"
        },
        {
          "indexed": true,
          "internalType": "address",
          "name": "approved",
          "type": "address"
        },
        {
          "indexed": true,
          "internalType": "uint256",
          "name": "tokenId",
          "type": "uint256"
        }
      ],
      "name": "Approval",
      "type": "event"
    },
    {
      "anonymous": false,
      "inputs": [
        {
          "indexed": true,
          "internalType": "address",
          "name": "owner",
          "type": "address"
        },
        {
          "indexed": true,
          "internalType": "address",
          "name": "operator",
          "type": "address"
        },
        {
          "indexed": false,
          "internalType": "bool",
          "name": "approved",
          "type": "bool"
        }
      ],
      "name": "ApprovalForAll",
      "type": "event"
    },
    {
      "anonymous": false,
      "inputs": [
        {
          "indexed": true,
          "internalType": "address",
          "name": "previousOwner",
          "type": "address"
        },
        {
          "indexed": true,
          "internalType": "address",
          "name": "newOwner",
          "type": "address"
        }
      ],
      "name": "OwnershipTransferred",
      "type": "event"
    },
    {
      "anonymous": false,
      "inputs": [
        {
          "indexed": true,
          "internalType": "address",
          "name": "from",
          "type": "address"
        },
        {
          "indexed": true,
          "internalType": "address",
          "name": "to",
          "type": "address"
        },
        {
          "indexed": true,
          "internalType": "uint256",
          "name": "tokenId",
          "type": "uint256"
        }
      ],
      "name": "Transfer",
      "type": "event"
    },
    {
      "inputs": [
        {
          "internalType": "address",
          "name": "to",
          "type": "address"
        },
        {
          "internalType": "uint256",
          "name": "quantity",
          "type": "uint256"
        }
      ],
      "name": "adminMint",
      "outputs": [],
      "stateMutability": "nonpayable",
      "type": "function"
    },
    {
      "inputs": [
        {
          "internalType": "address",
          "name": "to",
          "type": "address"
        },
        {
          "internalType": "uint256",
          "name": "tokenId",
          "type": "uint256"
        }
      ],
      "name": "approve",
      "outputs": [],
      "stateMutability": "nonpayable",
      "type": "function"
    },
    {
      "inputs": [
        {
          "internalType": "address",
          "name": "owner",
          "type": "address"
        }
      ],
      "name": "balanceOf",
      "outputs": [
        {
          "internalType": "uint256",
          "name": "",
          "type": "uint256"
        }
      ],
      "stateMutability": "view",
      "type": "function"
    },
    {
      "inputs": [],
      "name": "baseTokenURI",
      "outputs": [
        {
          "internalType": "string",
          "name": "",
          "type": "string"
        }
      ],
      "stateMutability": "view",
      "type": "function"
    },
    {
      "inputs": [
        {
          "internalType": "uint256",
          "name": "tokenId",
          "type": "uint256"
        }
      ],
      "name": "getApproved",
      "outputs": [
        {
          "internalType": "address",
          "name": "",
          "type": "address"
        }
      ],
      "stateMutability": "view",
      "type": "function"
    },
    {
      "inputs": [],
      "name": "hiddenTokenURI",
      "outputs": [
        {
          "internalType": "string",
          "name": "",
          "type": "string"
        }
      ],
      "stateMutability": "view",
      "type": "function"
    },
    {
      "inputs": [
        {
          "internalType": "address",
          "name": "owner",
          "type": "address"
        },
        {
          "internalType": "address",
          "name": "operator",
          "type": "address"
        }
      ],
      "name": "isApprovedForAll",
      "outputs": [
        {
          "internalType": "bool",
          "name": "",
          "type": "bool"
        }
      ],
      "stateMutability": "view",
      "type": "function"
    },
    {
      "inputs": [],
      "name": "maxForSale",
      "outputs": [
        {
          "internalType": "uint256",
          "name": "",
          "type": "uint256"
        }
      ],
      "stateMutability": "view",
      "type": "function"
    },
    {
      "inputs": [],
      "name": "name",
      "outputs": [
        {
          "internalType": "string",
          "name": "",
          "type": "string"
        }
      ],
      "stateMutability": "view",
      "type": "function"
    },
    {
      "inputs": [],
      "name": "owner",
      "outputs": [
        {
          "internalType": "address",
          "name": "",
          "type": "address"
        }
      ],
      "stateMutability": "view",
      "type": "function"
    },
    {
      "inputs": [
        {
          "internalType": "uint256",
          "name": "tokenId",
          "type": "uint256"
        }
      ],
      "name": "ownerOf",
      "outputs": [
        {
          "internalType": "address",
          "name": "",
          "type": "address"
        }
      ],
      "stateMutability": "view",
      "type": "function"
    },
    {
      "inputs": [],
      "name": "presaleMaxMint",
      "outputs": [
        {
          "internalType": "uint256",
          "name": "",
          "type": "uint256"
        }
      ],
      "stateMutability": "view",
      "type": "function"
    },
    {
      "inputs": [
        {
          "internalType": "bytes",
          "name": "signature",
          "type": "bytes"
        },
        {
          "internalType": "uint256",
          "name": "quantity",
          "type": "uint256"
        }
      ],
      "name": "presaleMint",
      "outputs": [],
      "stateMutability": "payable",
      "type": "function"
    },
    {
      "inputs": [],
      "name": "presalePrice",
      "outputs": [
        {
          "internalType": "uint256",
          "name": "",
          "type": "uint256"
        }
      ],
      "stateMutability": "view",
      "type": "function"
    },
    {
      "inputs": [],
      "name": "presaleStart",
      "outputs": [
        {
          "internalType": "uint256",
          "name": "",
          "type": "uint256"
        }
      ],
      "stateMutability": "view",
      "type": "function"
    },
    {
      "inputs": [],
      "name": "publicMaxMint",
      "outputs": [
        {
          "internalType": "uint256",
          "name": "",
          "type": "uint256"
        }
      ],
      "stateMutability": "view",
      "type": "function"
    },
    {
      "inputs": [
        {
          "internalType": "uint256",
          "name": "quantity",
          "type": "uint256"
        }
      ],
      "name": "publicMint",
      "outputs": [],
      "stateMutability": "payable",
      "type": "function"
    },
    {
      "inputs": [],
      "name": "publicPrice",
      "outputs": [
        {
          "internalType": "uint256",
          "name": "",
          "type": "uint256"
        }
      ],
      "stateMutability": "view",
      "type": "function"
    },
    {
      "inputs": [],
      "name": "publicStart",
      "outputs": [
        {
          "internalType": "uint256",
          "name": "",
          "type": "uint256"
        }
      ],
      "stateMutability": "view",
      "type": "function"
    },
    {
      "inputs": [],
      "name": "renounceOwnership",
      "outputs": [],
      "stateMutability": "nonpayable",
      "type": "function"
    },
    {
      "inputs": [
        {
          "internalType": "address",
          "name": "from",
          "type": "address"
        },
        {
          "internalType": "address",
          "name": "to",
          "type": "address"
        },
        {
          "internalType": "uint256",
          "name": "tokenId",
          "type": "uint256"
        }
      ],
      "name": "safeTransferFrom",
      "outputs": [],
      "stateMutability": "nonpayable",
      "type": "function"
    },
    {
      "inputs": [
        {
          "internalType": "address",
          "name": "from",
          "type": "address"
        },
        {
          "internalType": "address",
          "name": "to",
          "type": "address"
        },
        {
          "internalType": "uint256",
          "name": "tokenId",
          "type": "uint256"
        },
        {
          "internalType": "bytes",
          "name": "_data",
          "type": "bytes"
        }
      ],
      "name": "safeTransferFrom",
      "outputs": [],
      "stateMutability": "nonpayable",
      "type": "function"
    },
    {
      "inputs": [
        {
          "internalType": "address",
          "name": "operator",
          "type": "address"
        },
        {
          "internalType": "bool",
          "name": "approved",
          "type": "bool"
        }
      ],
      "name": "setApprovalForAll",
      "outputs": [],
      "stateMutability": "nonpayable",
      "type": "function"
    },
    {
      "inputs": [
        {
          "internalType": "string",
          "name": "baseUri",
          "type": "string"
        }
      ],
      "name": "setBaseURI",
      "outputs": [],
      "stateMutability": "nonpayable",
      "type": "function"
    },
    {
      "inputs": [
        {
          "internalType": "uint256",
          "name": "forSale",
          "type": "uint256"
        }
      ],
      "name": "setMaxForSale",
      "outputs": [],
      "stateMutability": "nonpayable",
      "type": "function"
    },
    {
      "inputs": [
        {
          "internalType": "uint256",
          "name": "max",
          "type": "uint256"
        }
      ],
      "name": "setPresaleMaxMint",
      "outputs": [],
      "stateMutability": "nonpayable",
      "type": "function"
    },
    {
      "inputs": [
        {
          "internalType": "uint256",
          "name": "price",
          "type": "uint256"
        }
      ],
      "name": "setPresalePrice",
      "outputs": [],
      "stateMutability": "nonpayable",
      "type": "function"
    },
    {
      "inputs": [
        {
          "internalType": "uint256",
          "name": "start",
          "type": "uint256"
        }
      ],
      "name": "setPresaleStart",
      "outputs": [],
      "stateMutability": "nonpayable",
      "type": "function"
    },
    {
      "inputs": [
        {
          "internalType": "uint256",
          "name": "max",
          "type": "uint256"
        }
      ],
      "name": "setPublicMaxMint",
      "outputs": [],
      "stateMutability": "nonpayable",
      "type": "function"
    },
    {
      "inputs": [
        {
          "internalType": "uint256",
          "name": "price",
          "type": "uint256"
        }
      ],
      "name": "setPublicPrice",
      "outputs": [],
      "stateMutability": "nonpayable",
      "type": "function"
    },
    {
      "inputs": [
        {
          "internalType": "uint256",
          "name": "start",
          "type": "uint256"
        }
      ],
      "name": "setPublicStart",
      "outputs": [],
      "stateMutability": "nonpayable",
      "type": "function"
    },
    {
      "inputs": [
        {
          "internalType": "uint256",
          "name": "max",
          "type": "uint256"
        }
      ],
      "name": "setWhitelistMaxMint",
      "outputs": [],
      "stateMutability": "nonpayable",
      "type": "function"
    },
    {
      "inputs": [
        {
          "internalType": "uint256",
          "name": "price",
          "type": "uint256"
        }
      ],
      "name": "setWhitelistPrice",
      "outputs": [],
      "stateMutability": "nonpayable",
      "type": "function"
    },
    {
      "inputs": [
        {
          "internalType": "uint256",
          "name": "start",
          "type": "uint256"
        }
      ],
      "name": "setWhitelistStart",
      "outputs": [],
      "stateMutability": "nonpayable",
      "type": "function"
    },
    {
      "inputs": [
        {
          "internalType": "bytes4",
          "name": "interfaceId",
          "type": "bytes4"
        }
      ],
      "name": "supportsInterface",
      "outputs": [
        {
          "internalType": "bool",
          "name": "",
          "type": "bool"
        }
      ],
      "stateMutability": "view",
      "type": "function"
    },
    {
      "inputs": [],
      "name": "symbol",
      "outputs": [
        {
          "internalType": "string",
          "name": "",
          "type": "string"
        }
      ],
      "stateMutability": "view",
      "type": "function"
    },
    {
      "inputs": [
        {
          "internalType": "address",
          "name": "owner",
          "type": "address"
        },
        {
          "internalType": "uint256",
          "name": "index",
          "type": "uint256"
        }
      ],
      "name": "tokenOfOwnerByIndex",
      "outputs": [
        {
          "internalType": "uint256",
          "name": "",
          "type": "uint256"
        }
      ],
      "stateMutability": "view",
      "type": "function"
    },
    {
      "inputs": [
        {
          "internalType": "uint256",
          "name": "tokenId",
          "type": "uint256"
        }
      ],
      "name": "tokenURI",
      "outputs": [
        {
          "internalType": "string",
          "name": "",
          "type": "string"
        }
      ],
      "stateMutability": "view",
      "type": "function"
    },
    {
      "inputs": [],
      "name": "totalSupply",
      "outputs": [
        {
          "internalType": "uint256",
          "name": "",
          "type": "uint256"
        }
      ],
      "stateMutability": "view",
      "type": "function"
    },
    {
      "inputs": [
        {
          "internalType": "address",
          "name": "from",
          "type": "address"
        },
        {
          "internalType": "address",
          "name": "to",
          "type": "address"
        },
        {
          "internalType": "uint256",
          "name": "tokenId",
          "type": "uint256"
        }
      ],
      "name": "transferFrom",
      "outputs": [],
      "stateMutability": "nonpayable",
      "type": "function"
    },
    {
      "inputs": [
        {
          "internalType": "address",
          "name": "newOwner",
          "type": "address"
        }
      ],
      "name": "transferOwnership",
      "outputs": [],
      "stateMutability": "nonpayable",
      "type": "function"
    },
    {
      "inputs": [],
      "name": "whitelistMaxMint",
      "outputs": [
        {
          "internalType": "uint256",
          "name": "",
          "type": "uint256"
        }
      ],
      "stateMutability": "view",
      "type": "function"
    },
    {
      "inputs": [
        {
          "internalType": "bytes",
          "name": "signature",
          "type": "bytes"
        },
        {
          "internalType": "uint256",
          "name": "quantity",
          "type": "uint256"
        }
      ],
      "name": "whitelistMint",
      "outputs": [],
      "stateMutability": "payable",
      "type": "function"
    },
    {
      "inputs": [],
      "name": "whitelistPrice",
      "outputs": [
        {
          "internalType": "uint256",
          "name": "",
          "type": "uint256"
        }
      ],
      "stateMutability": "view",
      "type": "function"
    },
    {
      "inputs": [],
      "name": "whitelistStart",
      "outputs": [
        {
          "internalType": "uint256",
          "name": "",
          "type": "uint256"
        }
      ],
      "stateMutability": "view",
      "type": "function"
    },
    {
      "inputs": [],
      "name": "withdraw",
      "outputs": [],
      "stateMutability": "nonpayable",
      "type": "function"
    }
  ],
  "bytecode": "0x60e06040526035608081815290620034de60a03980516200002991600d9160209091019062000173565b506126ab600e556361f82364600f55600260105566d529ae9e8600006011556361f974e4601255600160135566f8b0a10e4700006014556361fac664601555600560165567011c37937e0800006017553480156200008657600080fd5b5060408051808201825260068152652316a137b6b160d11b602080830191825283518085019094526005845264232127a6a160d91b908401528151919291620000d29160009162000173565b508051620000e890600190602084019062000173565b50505062000105620000ff6200011d60201b60201c565b62000121565b600b80546001600160a01b0319163317905562000256565b3390565b600680546001600160a01b038381166001600160a01b0319831681179093556040519116919082907f8be0079c531659141344cd1fd0a4f28419497f9722a3daafe3b4186f6b6457e090600090a35050565b828054620001819062000219565b90600052602060002090601f016020900481019282620001a55760008555620001f0565b82601f10620001c057805160ff1916838001178555620001f0565b82800160010185558215620001f0579182015b82811115620001f0578251825591602001919060010190620001d3565b50620001fe92915062000202565b5090565b5b80821115620001fe576000815560010162000203565b600181811c908216806200022e57607f821691505b602082108114156200025057634e487b7160e01b600052602260045260246000fd5b50919050565b61327880620002666000396000f3fe6080604052600436106102fc5760003560e01c806378152bbe1161018f578063b88d4fde116100e1578063e21469631161008a578063ec83ebbd11610064578063ec83ebbd1461080f578063f2fde38b14610824578063fc1a1c361461084457600080fd5b8063e214696314610786578063e58306f9146107a6578063e985e9c5146107c657600080fd5b8063d547cfb7116100bb578063d547cfb71461073b578063de8801e514610750578063df4305d21461076657600080fd5b8063b88d4fde146106db578063c6275255146106fb578063c87b56dd1461071b57600080fd5b8063994d396911610143578063a5f4c6ff1161011d578063a5f4c6ff14610699578063a945bf80146106af578063b68046c8146106c557600080fd5b8063994d396914610643578063a22cb46514610659578063a59585a81461067957600080fd5b80638da5cb5b116101745780638da5cb5b146105fa578063946ef42a1461061857806395d89b411461062e57600080fd5b806378152bbe146105ba57806380941f71146105da57600080fd5b80633549345e1161025357806356171417116101fc578063715018a6116101d6578063715018a61461056f578063717d57d314610584578063722e141d146105a457600080fd5b8063561714171461050f5780636352211e1461052f57806370a082311461054f57600080fd5b806342842e0e1161022d57806342842e0e146104bc5780634e21dc40146104dc57806355f804b3146104ef57600080fd5b80633549345e146104675780633ccfd60b146104875780633d6bcb161461049c57600080fd5b8063095ea7b3116102b55780632db115441161028f5780632db115441461041e5780632f745c5914610431578063305c7d4a1461045157600080fd5b8063095ea7b3146103c957806318160ddd146103e957806323b872dd146103fe57600080fd5b806306fdde03116102e657806306fdde031461035a578063081812fc1461037c57806308e3f868146103b457600080fd5b80620e7fa81461030157806301ffc9a71461032a575b600080fd5b34801561030d57600080fd5b5061031760145481565b6040519081526020015b60405180910390f35b34801561033657600080fd5b5061034a610345366004612ea8565b61085a565b6040519015158152602001610321565b34801561036657600080fd5b5061036f61093f565b60405161032191906130c7565b34801561038857600080fd5b5061039c610397366004612f69565b6109d1565b6040516001600160a01b039091168152602001610321565b6103c76103c2366004612ee0565b610a7c565b005b3480156103d557600080fd5b506103c76103e4366004612e67565b610cdb565b3480156103f557600080fd5b50610317610e0d565b34801561040a57600080fd5b506103c7610419366004612d8c565b610e1d565b6103c761042c366004612f69565b610ea4565b34801561043d57600080fd5b5061031761044c366004612e67565b61103e565b34801561045d57600080fd5b5061031760165481565b34801561047357600080fd5b506103c7610482366004612f69565b611103565b34801561049357600080fd5b506103c7611162565b3480156104a857600080fd5b506103c76104b7366004612f69565b6111f8565b3480156104c857600080fd5b506103c76104d7366004612d8c565b611257565b6103c76104ea366004612ee0565b611272565b3480156104fb57600080fd5b506103c761050a366004612f23565b6114c8565b34801561051b57600080fd5b506103c761052a366004612f69565b611535565b34801561053b57600080fd5b5061039c61054a366004612f69565b611594565b34801561055b57600080fd5b5061031761056a366004612d40565b61161f565b34801561057b57600080fd5b506103c76116b9565b34801561059057600080fd5b506103c761059f366004612f69565b61171f565b3480156105b057600080fd5b5061031760105481565b3480156105c657600080fd5b506103c76105d5366004612f69565b61177e565b3480156105e657600080fd5b506103c76105f5366004612f69565b6117dd565b34801561060657600080fd5b506006546001600160a01b031661039c565b34801561062457600080fd5b5061031760135481565b34801561063a57600080fd5b5061036f61183c565b34801561064f57600080fd5b50610317600f5481565b34801561066557600080fd5b506103c7610674366004612e2d565b61184b565b34801561068557600080fd5b506103c7610694366004612f69565b611856565b3480156106a557600080fd5b5061031760155481565b3480156106bb57600080fd5b5061031760175481565b3480156106d157600080fd5b50610317600e5481565b3480156106e757600080fd5b506103c76106f6366004612dc7565b6118b5565b34801561070757600080fd5b506103c7610716366004612f69565b611943565b34801561072757600080fd5b5061036f610736366004612f69565b6119a2565b34801561074757600080fd5b5061036f611adf565b34801561075c57600080fd5b5061031760125481565b34801561077257600080fd5b506103c7610781366004612f69565b611b6d565b34801561079257600080fd5b506103c76107a1366004612f69565b611bcc565b3480156107b257600080fd5b506103c76107c1366004612e67565b611c2b565b3480156107d257600080fd5b5061034a6107e1366004612d5a565b6001600160a01b03918216600090815260056020908152604080832093909416825291909152205460ff1690565b34801561081b57600080fd5b5061036f611ce2565b34801561083057600080fd5b506103c761083f366004612d40565b611cef565b34801561085057600080fd5b5061031760115481565b60007fffffffff0000000000000000000000000000000000000000000000000000000082167f80ac58cd0000000000000000000000000000000000000000000000000000000014806108ed57507fffffffff0000000000000000000000000000000000000000000000000000000082167f5b5e139f00000000000000000000000000000000000000000000000000000000145b8061093957507f01ffc9a7000000000000000000000000000000000000000000000000000000007fffffffff000000000000000000000000000000000000000000000000000000008316145b92915050565b60606000805461094e90613168565b80601f016020809104026020016040519081016040528092919081815260200182805461097a90613168565b80156109c75780601f1061099c576101008083540402835291602001916109c7565b820191906000526020600020905b8154815290600101906020018083116109aa57829003601f168201915b5050505050905090565b6000818152600260205260408120546001600160a01b0316610a605760405162461bcd60e51b815260206004820152602c60248201527f4552433732313a20617070726f76656420717565727920666f72206e6f6e657860448201527f697374656e7420746f6b656e000000000000000000000000000000000000000060648201526084015b60405180910390fd5b506000908152600460205260409020546001600160a01b031690565b60408051336020820152600191810182905283919060009060029060600160408051601f1981840301815290829052610ab491612fc9565b602060405180830381855afa158015610ad1573d6000803e3d6000fd5b5050506040513d601f19601f82011682018060405250810190610af49190612e90565b600b549091506001600160a01b0316610b0d8285611dce565b6001600160a01b031614610b635760405162461bcd60e51b815260206004820152601760248201527f4d494e543a20496e76616c6964207369676e61747572650000000000000000006044820152606401610a57565b600f54421015610bb55760405162461bcd60e51b815260206004820152601d60248201527f4d494e543a2057686974656c697374206973206e6f74206163746976650000006044820152606401610a57565b60105433600090815260076020526040902054610bd39086906130da565b1115610c215760405162461bcd60e51b815260206004820152601a60248201527f4d494e543a205175616e7469747920697320746f6f20686967680000000000006044820152606401610a57565b601154610c2e9085613106565b3414610c7c5760405162461bcd60e51b815260206004820152601660248201527f4d494e543a2056616c756520697320746f6f206c6f77000000000000000000006044820152606401610a57565b3360009081526007602052604081208054869290610c9b9084906130da565b90915550600090505b84811015610cd357600e54600a541015610cc157610cc133611df2565b80610ccb816131a3565b915050610ca4565b505050505050565b6000610ce682611594565b9050806001600160a01b0316836001600160a01b03161415610d705760405162461bcd60e51b815260206004820152602160248201527f4552433732313a20617070726f76616c20746f2063757272656e74206f776e6560448201527f72000000000000000000000000000000000000000000000000000000000000006064820152608401610a57565b336001600160a01b0382161480610d8c5750610d8c81336107e1565b610dfe5760405162461bcd60e51b815260206004820152603860248201527f4552433732313a20617070726f76652063616c6c6572206973206e6f74206f7760448201527f6e6572206e6f7220617070726f76656420666f7220616c6c00000000000000006064820152608401610a57565b610e088383611e12565b505050565b6000610e18600a5490565b905090565b610e273382611e8d565b610e995760405162461bcd60e51b815260206004820152603160248201527f4552433732313a207472616e736665722063616c6c6572206973206e6f74206f60448201527f776e6572206e6f7220617070726f7665640000000000000000000000000000006064820152608401610a57565b610e08838383611f95565b601554421015610f1c5760405162461bcd60e51b815260206004820152602b60248201527f4d494e543a204d696e74696e67206973206e6f7420796574206f70656e20746f60448201527f20746865207075626c69630000000000000000000000000000000000000000006064820152608401610a57565b60165433600090815260096020526040902054610f3a9083906130da565b1115610f885760405162461bcd60e51b815260206004820152601a60248201527f4d494e543a205175616e7469747920697320746f6f20686967680000000000006044820152606401610a57565b601754610f959082613106565b3414610fe35760405162461bcd60e51b815260206004820152601660248201527f4d494e543a2056616c756520697320746f6f206c6f77000000000000000000006044820152606401610a57565b33600090815260096020526040812080548392906110029084906130da565b90915550600090505b8181101561103a57600e54600a5410156110285761102833611df2565b80611032816131a3565b91505061100b565b5050565b60006110498361161f565b82106110975760405162461bcd60e51b815260206004820152601960248201527f4f776e657220696e646578206f7574206f6620626f756e6473000000000000006044820152606401610a57565b600060015b600a5481116110f857846001600160a01b03166110b882611594565b6001600160a01b031614156110e657838214156110d85791506109399050565b816110e2816131a3565b9250505b806110f0816131a3565b91505061109c565b506000949350505050565b6006546001600160a01b0316331461115d5760405162461bcd60e51b815260206004820181905260248201527f4f776e61626c653a2063616c6c6572206973206e6f7420746865206f776e65726044820152606401610a57565b601455565b6006546001600160a01b031633146111bc5760405162461bcd60e51b815260206004820181905260248201527f4f776e61626c653a2063616c6c6572206973206e6f7420746865206f776e65726044820152606401610a57565b6006546040516001600160a01b03909116904780156108fc02916000818181858888f193505050501580156111f5573d6000803e3d6000fd5b50565b6006546001600160a01b031633146112525760405162461bcd60e51b815260206004820181905260248201527f4f776e61626c653a2063616c6c6572206973206e6f7420746865206f776e65726044820152606401610a57565b600e55565b610e08838383604051806020016040528060008152506118b5565b604080513360208201526002918101829052839190600090829060600160408051601f19818403018152908290526112a991612fc9565b602060405180830381855afa1580156112c6573d6000803e3d6000fd5b5050506040513d601f19601f820116820180604052508101906112e99190612e90565b600b549091506001600160a01b03166113028285611dce565b6001600160a01b0316146113585760405162461bcd60e51b815260206004820152601760248201527f4d494e543a20496e76616c6964207369676e61747572650000000000000000006044820152606401610a57565b6012544210156113aa5760405162461bcd60e51b815260206004820152601b60248201527f4d494e543a2050726573616c65206973206e6f742061637469766500000000006044820152606401610a57565b601354336000908152600860205260409020546113c89086906130da565b11156114165760405162461bcd60e51b815260206004820152601a60248201527f4d494e543a205175616e7469747920697320746f6f20686967680000000000006044820152606401610a57565b6014546114239085613106565b34146114715760405162461bcd60e51b815260206004820152601660248201527f4d494e543a2056616c756520697320746f6f206c6f77000000000000000000006044820152606401610a57565b33600090815260086020526040812080548692906114909084906130da565b90915550600090505b84811015610cd357600e54600a5410156114b6576114b633611df2565b806114c0816131a3565b915050611499565b6006546001600160a01b031633146115225760405162461bcd60e51b815260206004820181905260248201527f4f776e61626c653a2063616c6c6572206973206e6f7420746865206f776e65726044820152606401610a57565b805161103a90600c906020840190612bef565b6006546001600160a01b0316331461158f5760405162461bcd60e51b815260206004820181905260248201527f4f776e61626c653a2063616c6c6572206973206e6f7420746865206f776e65726044820152606401610a57565b601555565b6000818152600260205260408120546001600160a01b0316806109395760405162461bcd60e51b815260206004820152602960248201527f4552433732313a206f776e657220717565727920666f72206e6f6e657869737460448201527f656e7420746f6b656e00000000000000000000000000000000000000000000006064820152608401610a57565b60006001600160a01b03821661169d5760405162461bcd60e51b815260206004820152602a60248201527f4552433732313a2062616c616e636520717565727920666f7220746865207a6560448201527f726f2061646472657373000000000000000000000000000000000000000000006064820152608401610a57565b506001600160a01b031660009081526003602052604090205490565b6006546001600160a01b031633146117135760405162461bcd60e51b815260206004820181905260248201527f4f776e61626c653a2063616c6c6572206973206e6f7420746865206f776e65726044820152606401610a57565b61171d600061216f565b565b6006546001600160a01b031633146117795760405162461bcd60e51b815260206004820181905260248201527f4f776e61626c653a2063616c6c6572206973206e6f7420746865206f776e65726044820152606401610a57565b601155565b6006546001600160a01b031633146117d85760405162461bcd60e51b815260206004820181905260248201527f4f776e61626c653a2063616c6c6572206973206e6f7420746865206f776e65726044820152606401610a57565b601255565b6006546001600160a01b031633146118375760405162461bcd60e51b815260206004820181905260248201527f4f776e61626c653a2063616c6c6572206973206e6f7420746865206f776e65726044820152606401610a57565b600f55565b60606001805461094e90613168565b61103a3383836121ce565b6006546001600160a01b031633146118b05760405162461bcd60e51b815260206004820181905260248201527f4f776e61626c653a2063616c6c6572206973206e6f7420746865206f776e65726044820152606401610a57565b601655565b6118bf3383611e8d565b6119315760405162461bcd60e51b815260206004820152603160248201527f4552433732313a207472616e736665722063616c6c6572206973206e6f74206f60448201527f776e6572206e6f7220617070726f7665640000000000000000000000000000006064820152608401610a57565b61193d8484848461229d565b50505050565b6006546001600160a01b0316331461199d5760405162461bcd60e51b815260206004820181905260248201527f4f776e61626c653a2063616c6c6572206973206e6f7420746865206f776e65726044820152606401610a57565b601755565b6060816119ae600a5490565b101580156119bc5750600082115b611a085760405162461bcd60e51b815260206004820152601360248201527f546f6b656e20646f65736e2774206578697374000000000000000000000000006044820152606401610a57565b6000600c8054611a1790613168565b905011611aae57600d8054611a2b90613168565b80601f0160208091040260200160405190810160405280929190818152602001828054611a5790613168565b8015611aa45780601f10611a7957610100808354040283529160200191611aa4565b820191906000526020600020905b815481529060010190602001808311611a8757829003601f168201915b5050505050610939565b600c611ab983612326565b604051602001611aca929190612fe5565b60405160208183030381529060405292915050565b600c8054611aec90613168565b80601f0160208091040260200160405190810160405280929190818152602001828054611b1890613168565b8015611b655780601f10611b3a57610100808354040283529160200191611b65565b820191906000526020600020905b815481529060010190602001808311611b4857829003601f168201915b505050505081565b6006546001600160a01b03163314611bc75760405162461bcd60e51b815260206004820181905260248201527f4f776e61626c653a2063616c6c6572206973206e6f7420746865206f776e65726044820152606401610a57565b601355565b6006546001600160a01b03163314611c265760405162461bcd60e51b815260206004820181905260248201527f4f776e61626c653a2063616c6c6572206973206e6f7420746865206f776e65726044820152606401610a57565b601055565b6006546001600160a01b03163314611c855760405162461bcd60e51b815260206004820181905260248201527f4f776e61626c653a2063616c6c6572206973206e6f7420746865206f776e65726044820152606401610a57565b60005b81811015610e085761270f611c9c600a5490565b1015611cd05761270f600e541015611cc7576001600e6000828254611cc191906130da565b90915550505b611cd083611df2565b80611cda816131a3565b915050611c88565b600d8054611aec90613168565b6006546001600160a01b03163314611d495760405162461bcd60e51b815260206004820181905260248201527f4f776e61626c653a2063616c6c6572206973206e6f7420746865206f776e65726044820152606401610a57565b6001600160a01b038116611dc55760405162461bcd60e51b815260206004820152602660248201527f4f776e61626c653a206e6577206f776e657220697320746865207a65726f206160448201527f64647265737300000000000000000000000000000000000000000000000000006064820152608401610a57565b6111f58161216f565b6000806000611ddd8585612474565b91509150611dea816124e4565b509392505050565b611e00600a80546001019055565b6111f581611e0d600a5490565b61271b565b6000818152600460205260409020805473ffffffffffffffffffffffffffffffffffffffff19166001600160a01b0384169081179091558190611e5482611594565b6001600160a01b03167f8c5be1e5ebec7d5bd14f71427d1e84f3dd0314c0f7b2291e5b200ac8c7c3b92560405160405180910390a45050565b6000818152600260205260408120546001600160a01b0316611f175760405162461bcd60e51b815260206004820152602c60248201527f4552433732313a206f70657261746f7220717565727920666f72206e6f6e657860448201527f697374656e7420746f6b656e00000000000000000000000000000000000000006064820152608401610a57565b6000611f2283611594565b9050806001600160a01b0316846001600160a01b03161480611f5d5750836001600160a01b0316611f52846109d1565b6001600160a01b0316145b80611f8d57506001600160a01b0380821660009081526005602090815260408083209388168352929052205460ff165b949350505050565b826001600160a01b0316611fa882611594565b6001600160a01b0316146120245760405162461bcd60e51b815260206004820152602960248201527f4552433732313a207472616e73666572206f6620746f6b656e2074686174206960448201527f73206e6f74206f776e00000000000000000000000000000000000000000000006064820152608401610a57565b6001600160a01b03821661209f5760405162461bcd60e51b8152602060048201526024808201527f4552433732313a207472616e7366657220746f20746865207a65726f2061646460448201527f72657373000000000000000000000000000000000000000000000000000000006064820152608401610a57565b6120aa600082611e12565b6001600160a01b03831660009081526003602052604081208054600192906120d3908490613125565b90915550506001600160a01b03821660009081526003602052604081208054600192906121019084906130da565b9091555050600081815260026020526040808220805473ffffffffffffffffffffffffffffffffffffffff19166001600160a01b0386811691821790925591518493918716917fddf252ad1be2c89b69c2b068fc378daa952ba7f163c4a11628f55a4df523b3ef91a4505050565b600680546001600160a01b0383811673ffffffffffffffffffffffffffffffffffffffff19831681179093556040519116919082907f8be0079c531659141344cd1fd0a4f28419497f9722a3daafe3b4186f6b6457e090600090a35050565b816001600160a01b0316836001600160a01b031614156122305760405162461bcd60e51b815260206004820152601960248201527f4552433732313a20617070726f766520746f2063616c6c6572000000000000006044820152606401610a57565b6001600160a01b03838116600081815260056020908152604080832094871680845294825291829020805460ff191686151590811790915591519182527f17307eab39ab6107e8899845ad3d59bd9653f200f220920489ca2b5937696c31910160405180910390a3505050565b6122a8848484611f95565b6122b484848484612735565b61193d5760405162461bcd60e51b815260206004820152603260248201527f4552433732313a207472616e7366657220746f206e6f6e20455243373231526560448201527f63656976657220696d706c656d656e74657200000000000000000000000000006064820152608401610a57565b60608161236657505060408051808201909152600181527f3000000000000000000000000000000000000000000000000000000000000000602082015290565b8160005b8115612390578061237a816131a3565b91506123899050600a836130f2565b915061236a565b60008167ffffffffffffffff8111156123b957634e487b7160e01b600052604160045260246000fd5b6040519080825280601f01601f1916602001820160405280156123e3576020820181803683370190505b5090505b8415611f8d576123f8600183613125565b9150612405600a866131be565b6124109060306130da565b60f81b81838151811061243357634e487b7160e01b600052603260045260246000fd5b60200101907effffffffffffffffffffffffffffffffffffffffffffffffffffffffffffff1916908160001a90535061246d600a866130f2565b94506123e7565b6000808251604114156124ab5760208301516040840151606085015160001a61249f878285856128e2565b945094505050506124dd565b8251604014156124d557602083015160408401516124ca8683836129cf565b9350935050506124dd565b506000905060025b9250929050565b600081600481111561250657634e487b7160e01b600052602160045260246000fd5b141561250f5750565b600181600481111561253157634e487b7160e01b600052602160045260246000fd5b141561257f5760405162461bcd60e51b815260206004820152601860248201527f45434453413a20696e76616c6964207369676e617475726500000000000000006044820152606401610a57565b60028160048111156125a157634e487b7160e01b600052602160045260246000fd5b14156125ef5760405162461bcd60e51b815260206004820152601f60248201527f45434453413a20696e76616c6964207369676e6174757265206c656e677468006044820152606401610a57565b600381600481111561261157634e487b7160e01b600052602160045260246000fd5b14156126855760405162461bcd60e51b815260206004820152602260248201527f45434453413a20696e76616c6964207369676e6174757265202773272076616c60448201527f75650000000000000000000000000000000000000000000000000000000000006064820152608401610a57565b60048160048111156126a757634e487b7160e01b600052602160045260246000fd5b14156111f55760405162461bcd60e51b815260206004820152602260248201527f45434453413a20696e76616c6964207369676e6174757265202776272076616c60448201527f75650000000000000000000000000000000000000000000000000000000000006064820152608401610a57565b61103a828260405180602001604052806000815250612a17565b60006001600160a01b0384163b156128d7576040517f150b7a020000000000000000000000000000000000000000000000000000000081526001600160a01b0385169063150b7a029061279290339089908890889060040161308b565b602060405180830381600087803b1580156127ac57600080fd5b505af19250505080156127dc575060408051601f3d908101601f191682019092526127d991810190612ec4565b60015b61288c573d80801561280a576040519150601f19603f3d011682016040523d82523d6000602084013e61280f565b606091505b5080516128845760405162461bcd60e51b815260206004820152603260248201527f4552433732313a207472616e7366657220746f206e6f6e20455243373231526560448201527f63656976657220696d706c656d656e74657200000000000000000000000000006064820152608401610a57565b805181602001fd5b7fffffffff00000000000000000000000000000000000000000000000000000000167f150b7a0200000000000000000000000000000000000000000000000000000000149050611f8d565b506001949350505050565b6000807f7fffffffffffffffffffffffffffffff5d576e7357a4501ddfe92f46681b20a083111561291957506000905060036129c6565b8460ff16601b1415801561293157508460ff16601c14155b1561294257506000905060046129c6565b6040805160008082526020820180845289905260ff881692820192909252606081018690526080810185905260019060a0016020604051602081039080840390855afa158015612996573d6000803e3d6000fd5b5050604051601f1901519150506001600160a01b0381166129bf576000600192509250506129c6565b9150600090505b94509492505050565b6000807f7fffffffffffffffffffffffffffffffffffffffffffffffffffffffffffffff831660ff84901c601b01612a09878288856128e2565b935093505050935093915050565b612a218383612aa0565b612a2e6000848484612735565b610e085760405162461bcd60e51b815260206004820152603260248201527f4552433732313a207472616e7366657220746f206e6f6e20455243373231526560448201527f63656976657220696d706c656d656e74657200000000000000000000000000006064820152608401610a57565b6001600160a01b038216612af65760405162461bcd60e51b815260206004820181905260248201527f4552433732313a206d696e7420746f20746865207a65726f20616464726573736044820152606401610a57565b6000818152600260205260409020546001600160a01b031615612b5b5760405162461bcd60e51b815260206004820152601c60248201527f4552433732313a20746f6b656e20616c7265616479206d696e746564000000006044820152606401610a57565b6001600160a01b0382166000908152600360205260408120805460019290612b849084906130da565b9091555050600081815260026020526040808220805473ffffffffffffffffffffffffffffffffffffffff19166001600160a01b03861690811790915590518392907fddf252ad1be2c89b69c2b068fc378daa952ba7f163c4a11628f55a4df523b3ef908290a45050565b828054612bfb90613168565b90600052602060002090601f016020900481019282612c1d5760008555612c63565b82601f10612c3657805160ff1916838001178555612c63565b82800160010185558215612c63579182015b82811115612c63578251825591602001919060010190612c48565b50612c6f929150612c73565b5090565b5b80821115612c6f5760008155600101612c74565b600067ffffffffffffffff80841115612ca357612ca36131fe565b604051601f8501601f19908116603f01168101908282118183101715612ccb57612ccb6131fe565b81604052809350858152868686011115612ce457600080fd5b858560208301376000602087830101525050509392505050565b80356001600160a01b0381168114612d1557600080fd5b919050565b600082601f830112612d2a578081fd5b612d3983833560208501612c88565b9392505050565b600060208284031215612d51578081fd5b612d3982612cfe565b60008060408385031215612d6c578081fd5b612d7583612cfe565b9150612d8360208401612cfe565b90509250929050565b600080600060608486031215612da0578081fd5b612da984612cfe565b9250612db760208501612cfe565b9150604084013590509250925092565b60008060008060808587031215612ddc578081fd5b612de585612cfe565b9350612df360208601612cfe565b925060408501359150606085013567ffffffffffffffff811115612e15578182fd5b612e2187828801612d1a565b91505092959194509250565b60008060408385031215612e3f578182fd5b612e4883612cfe565b915060208301358015158114612e5c578182fd5b809150509250929050565b60008060408385031215612e79578182fd5b612e8283612cfe565b946020939093013593505050565b600060208284031215612ea1578081fd5b5051919050565b600060208284031215612eb9578081fd5b8135612d3981613214565b600060208284031215612ed5578081fd5b8151612d3981613214565b60008060408385031215612ef2578182fd5b823567ffffffffffffffff811115612f08578283fd5b612f1485828601612d1a565b95602094909401359450505050565b600060208284031215612f34578081fd5b813567ffffffffffffffff811115612f4a578182fd5b8201601f81018413612f5a578182fd5b611f8d84823560208401612c88565b600060208284031215612f7a578081fd5b5035919050565b60008151808452612f9981602086016020860161313c565b601f01601f19169290920160200192915050565b60008151612fbf81856020860161313c565b9290920192915050565b60008251612fdb81846020870161313c565b9190910192915050565b600080845482600182811c91508083168061300157607f831692505b602080841082141561302157634e487b7160e01b87526022600452602487fd5b818015613035576001811461304657613072565b60ff19861689528489019650613072565b60008b815260209020885b8681101561306a5781548b820152908501908301613051565b505084890196505b5050505050506130828185612fad565b95945050505050565b60006001600160a01b038087168352808616602084015250836040830152608060608301526130bd6080830184612f81565b9695505050505050565b602081526000612d396020830184612f81565b600082198211156130ed576130ed6131d2565b500190565b600082613101576131016131e8565b500490565b6000816000190483118215151615613120576131206131d2565b500290565b600082821015613137576131376131d2565b500390565b60005b8381101561315757818101518382015260200161313f565b8381111561193d5750506000910152565b600181811c9082168061317c57607f821691505b6020821081141561319d57634e487b7160e01b600052602260045260246000fd5b50919050565b60006000198214156131b7576131b76131d2565b5060010190565b6000826131cd576131cd6131e8565b500690565b634e487b7160e01b600052601160045260246000fd5b634e487b7160e01b600052601260045260246000fd5b634e487b7160e01b600052604160045260246000fd5b7fffffffff00000000000000000000000000000000000000000000000000000000811681146111f557600080fdfea2646970667358221220b98396ec1bbae027b556471cd43cf9e78ed6803d0fe2ba891d46193ffef176da64736f6c63430008040033697066733a2f2f516d533877517169684d68654d5374536653586f434e72664a53737756583637517558644662393850794e6e5835",
  "linkReferences": {},
  "deployedLinkReferences": {}
}